POL0000001RAMESH KUMAR                HL000500000A
POL0000002SURESH REDDY                MV000300000A
POL0000003ANITA SHARMA                LI000700000I
POL0000004MOHAMMED ALI                HL000400000A
